:2000000000000000000000000000000000000000F0F0F0F000000000000000000000000020
:2000200000000000F0F0F0F00000000000000000F0F0F0F0F0F0F0F0000000000000000080
:200040000000000000000000F0F0F0F000000000F0F0F0F000000000F0F0F0F00000000060
:2000600000000000F0F0F0F0F0F0F0F000000000F0F0F0F0F0F0F0F0F0F0F0F000000000C0
:20008000000000000000000000000000F0F0F0F0F0F0F0F00000000000000000F0F0F0F020
:2000A00000000000F0F0F0F000000000F0F0F0F0F0F0F0F0F0F0F0F000000000F0F0F0F080
:2000C0000000000000000000F0F0F0F0F0F0F0F0F0F0F0F000000000F0F0F0F0F0F0F0F060
:2000E00000000000F0F0F0F0F0F0F0F0F0F0F0F0F0F0F0F0F0F0F0F0F0F0F0F0F0F0F0F0C0
:200100000F0F0F0F000000000000000000000000FFFFFFFF000000000000000000000000A7
:200120000F0F0F0FF0F0F0F00000000000000000FFFFFFFFF0F0F0F0000000000000000007
:200140000F0F0F0F00000000F0F0F0F000000000FFFFFFFF00000000F0F0F0F000000000E7
:200160000F0F0F0FF0F0F0F0F0F0F0F000000000FFFFFFFFF0F0F0F0F0F0F0F00000000047
:200180000F0F0F0F0000000000000000F0F0F0F0FFFFFFFF0000000000000000F0F0F0F0A7
:2001A0000F0F0F0FF0F0F0F000000000F0F0F0F0FFFFFFFFF0F0F0F000000000F0F0F0F007
:2001C0000F0F0F0F00000000F0F0F0F0F0F0F0F0FFFFFFFF00000000F0F0F0F0F0F0F0F0E7
:2001E0000F0F0F0FF0F0F0F0F0F0F0F0F0F0F0F0FFFFFFFFF0F0F0F0F0F0F0F0F0F0F0F047
:20020000000000000F0F0F0F0000000000000000F0F0F0F00F0F0F0F0000000000000000A6
:2002200000000000FFFFFFFF0000000000000000F0F0F0F0FFFFFFFF000000000000000006
:20024000000000000F0F0F0FF0F0F0F000000000F0F0F0F00F0F0F0FF0F0F0F000000000E6
:2002600000000000FFFFFFFFF0F0F0F000000000F0F0F0F0FFFFFFFFF0F0F0F00000000046
:20028000000000000F0F0F0F00000000F0F0F0F0F0F0F0F00F0F0F0F00000000F0F0F0F0A6
:2002A00000000000FFFFFFFF00000000F0F0F0F0F0F0F0F0FFFFFFFF00000000F0F0F0F006
:2002C000000000000F0F0F0FF0F0F0F0F0F0F0F0F0F0F0F00F0F0F0FF0F0F0F0F0F0F0F0E6
:2002E00000000000FFFFFFFFF0F0F0F0F0F0F0F0F0F0F0F0FFFFFFFFF0F0F0F0F0F0F0F046
:200300000F0F0F0F0F0F0F0F0000000000000000FFFFFFFF0F0F0F0F00000000000000002D
:200320000F0F0F0FFFFFFFFF0000000000000000FFFFFFFFFFFFFFFF00000000000000008D
:200340000F0F0F0F0F0F0F0FF0F0F0F000000000FFFFFFFF0F0F0F0FF0F0F0F0000000006D
:200360000F0F0F0FFFFFFFFFF0F0F0F000000000FFFFFFFFFFFFFFFFF0F0F0F000000000CD
:200380000F0F0F0F0F0F0F0F00000000F0F0F0F0FFFFFFFF0F0F0F0F00000000F0F0F0F02D
:2003A0000F0F0F0FFFFFFFFF00000000F0F0F0F0FFFFFFFFFFFFFFFF00000000F0F0F0F08D
:2003C0000F0F0F0F0F0F0F0FF0F0F0F0F0F0F0F0FFFFFFFF0F0F0F0FF0F0F0F0F0F0F0F06D
:2003E0000F0F0F0FFFFFFFFFF0F0F0F0F0F0F0F0FFFFFFFFFFFFFFFFF0F0F0F0F0F0F0F0CD
:2004000000000000000000000F0F0F0F00000000F0F0F0F0000000000F0F0F0F00000000A4
:2004200000000000F0F0F0F00F0F0F0F00000000F0F0F0F0F0F0F0F00F0F0F0F0000000004
:200440000000000000000000FFFFFFFF00000000F0F0F0F000000000FFFFFFFF00000000E4
:2004600000000000F0F0F0F0FFFFFFFF00000000F0F0F0F0F0F0F0F0FFFFFFFF0000000044
:2004800000000000000000000F0F0F0FF0F0F0F0F0F0F0F0000000000F0F0F0FF0F0F0F0A4
:2004A00000000000F0F0F0F00F0F0F0FF0F0F0F0F0F0F0F0F0F0F0F00F0F0F0FF0F0F0F004
:2004C0000000000000000000FFFFFFFFF0F0F0F0F0F0F0F000000000FFFFFFFFF0F0F0F0E4
:2004E00000000000F0F0F0F0FFFFFFFFF0F0F0F0F0F0F0F0F0F0F0F0FFFFFFFFF0F0F0F044
:200500000F0F0F0F000000000F0F0F0F00000000FFFFFFFF000000000F0F0F0F000000002B
:200520000F0F0F0FF0F0F0F00F0F0F0F00000000FFFFFFFFF0F0F0F00F0F0F0F000000008B
:200540000F0F0F0F00000000FFFFFFFF00000000FFFFFFFF00000000FFFFFFFF000000006B
:200560000F0F0F0FF0F0F0F0FFFFFFFF00000000FFFFFFFFF0F0F0F0FFFFFFFF00000000CB
:200580000F0F0F0F000000000F0F0F0FF0F0F0F0FFFFFFFF000000000F0F0F0FF0F0F0F02B
:2005A0000F0F0F0FF0F0F0F00F0F0F0FF0F0F0F0FFFFFFFFF0F0F0F00F0F0F0FF0F0F0F08B
:2005C0000F0F0F0F00000000FFFFFFFFF0F0F0F0FFFFFFFF00000000FFFFFFFFF0F0F0F06B
:2005E0000F0F0F0FF0F0F0F0FFFFFFFFF0F0F0F0FFFFFFFFF0F0F0F0FFFFFFFFF0F0F0F0CB
:20060000000000000F0F0F0F0F0F0F0F00000000F0F0F0F00F0F0F0F0F0F0F0F000000002A
:2006200000000000FFFFFFFF0F0F0F0F00000000F0F0F0F0FFFFFFFF0F0F0F0F000000008A
:20064000000000000F0F0F0FFFFFFFFF00000000F0F0F0F00F0F0F0FFFFFFFFF000000006A
:2006600000000000FFFFFFFFFFFFFFFF00000000F0F0F0F0FFFFFFFFFFFFFFFF00000000CA
:20068000000000000F0F0F0F0F0F0F0FF0F0F0F0F0F0F0F00F0F0F0F0F0F0F0FF0F0F0F02A
:2006A00000000000FFFFFFFF0F0F0F0FF0F0F0F0F0F0F0F0FFFFFFFF0F0F0F0FF0F0F0F08A
:2006C000000000000F0F0F0FFFFFFFFFF0F0F0F0F0F0F0F00F0F0F0FFFFFFFFFF0F0F0F06A
:2006E00000000000FFFFFFFFFFFFFFFFF0F0F0F0F0F0F0F0FFFFFFFFFFFFFFFFF0F0F0F0CA
:200700000F0F0F0F0F0F0F0F0F0F0F0F00000000FFFFFFFF0F0F0F0F0F0F0F0F00000000B1
:200720000F0F0F0FFFFFFFFF0F0F0F0F00000000FFFFFFFFFFFFFFFF0F0F0F0F0000000011
:200740000F0F0F0F0F0F0F0FFFFFFFFF00000000FFFFFFFF0F0F0F0FFFFFFFFF00000000F1
:200760000F0F0F0FFFFFFFFFFFFFFFFF00000000FFFFFFFFFFFFFFFFFFFFFFFF0000000051
:200780000F0F0F0F0F0F0F0F0F0F0F0FF0F0F0F0FFFFFFFF0F0F0F0F0F0F0F0FF0F0F0F0B1
:2007A0000F0F0F0FFFFFFFFF0F0F0F0FF0F0F0F0FFFFFFFFFFFFFFFF0F0F0F0FF0F0F0F011
:2007C0000F0F0F0F0F0F0F0FFFFFFFFFF0F0F0F0FFFFFFFF0F0F0F0FFFFFFFFFF0F0F0F0F1
:2007E0000F0F0F0FFFFFFFFFFFFFFFFFF0F0F0F0FFFFFFFFFFFFFFFFFFFFFFFFF0F0F0F051
:200800000000000000000000000000000F0F0F0FF0F0F0F000000000000000000F0F0F0FA0
:2008200000000000F0F0F0F0000000000F0F0F0FF0F0F0F0F0F0F0F0000000000F0F0F0F00
:200840000000000000000000F0F0F0F00F0F0F0FF0F0F0F000000000F0F0F0F00F0F0F0FE0
:2008600000000000F0F0F0F0F0F0F0F00F0F0F0FF0F0F0F0F0F0F0F0F0F0F0F00F0F0F0F40
:20088000000000000000000000000000FFFFFFFFF0F0F0F00000000000000000FFFFFFFFA0
:2008A00000000000F0F0F0F000000000FFFFFFFFF0F0F0F0F0F0F0F000000000FFFFFFFF00
:2008C0000000000000000000F0F0F0F0FFFFFFFFF0F0F0F000000000F0F0F0F0FFFFFFFFE0
:2008E00000000000F0F0F0F0F0F0F0F0FFFFFFFFF0F0F0F0F0F0F0F0F0F0F0F0FFFFFFFF40
:200900000F0F0F0F00000000000000000F0F0F0FFFFFFFFF00000000000000000F0F0F0F27
:200920000F0F0F0FF0F0F0F0000000000F0F0F0FFFFFFFFFF0F0F0F0000000000F0F0F0F87
:200940000F0F0F0F00000000F0F0F0F00F0F0F0FFFFFFFFF00000000F0F0F0F00F0F0F0F67
:200960000F0F0F0FF0F0F0F0F0F0F0F00F0F0F0FFFFFFFFFF0F0F0F0F0F0F0F00F0F0F0FC7
:200980000F0F0F0F0000000000000000FFFFFFFFFFFFFFFF0000000000000000FFFFFFFF27
:2009A0000F0F0F0FF0F0F0F000000000FFFFFFFFFFFFFFFFF0F0F0F000000000FFFFFFFF87
:2009C0000F0F0F0F00000000F0F0F0F0FFFFFFFFFFFFFFFF00000000F0F0F0F0FFFFFFFF67
:2009E0000F0F0F0FF0F0F0F0F0F0F0F0FFFFFFFFFFFFFFFFF0F0F0F0F0F0F0F0FFFFFFFFC7
:200A0000000000000F0F0F0F000000000F0F0F0FF0F0F0F00F0F0F0F000000000F0F0F0F26
:200A200000000000FFFFFFFF000000000F0F0F0FF0F0F0F0FFFFFFFF000000000F0F0F0F86
:200A4000000000000F0F0F0FF0F0F0F00F0F0F0FF0F0F0F00F0F0F0FF0F0F0F00F0F0F0F66
:200A600000000000FFFFFFFFF0F0F0F00F0F0F0FF0F0F0F0FFFFFFFFF0F0F0F00F0F0F0FC6
:200A8000000000000F0F0F0F00000000FFFFFFFFF0F0F0F00F0F0F0F00000000FFFFFFFF26
:200AA00000000000FFFFFFFF00000000FFFFFFFFF0F0F0F0FFFFFFFF00000000FFFFFFFF86
:200AC000000000000F0F0F0FF0F0F0F0FFFFFFFFF0F0F0F00F0F0F0FF0F0F0F0FFFFFFFF66
:200AE00000000000FFFFFFFFF0F0F0F0FFFFFFFFF0F0F0F0FFFFFFFFF0F0F0F0FFFFFFFFC6
:200B00000F0F0F0F0F0F0F0F000000000F0F0F0FFFFFFFFF0F0F0F0F000000000F0F0F0FAD
:200B20000F0F0F0FFFFFFFFF000000000F0F0F0FFFFFFFFFFFFFFFFF000000000F0F0F0F0D
:200B40000F0F0F0F0F0F0F0FF0F0F0F00F0F0F0FFFFFFFFF0F0F0F0FF0F0F0F00F0F0F0FED
:200B60000F0F0F0FFFFFFFFFF0F0F0F00F0F0F0FFFFFFFFFFFFFFFFFF0F0F0F00F0F0F0F4D
:200B80000F0F0F0F0F0F0F0F00000000FFFFFFFFFFFFFFFF0F0F0F0F00000000FFFFFFFFAD
:200BA0000F0F0F0FFFFFFFFF00000000FFFFFFFFFFFFFFFFFFFFFFFF00000000FFFFFFFF0D
:200BC0000F0F0F0F0F0F0F0FF0F0F0F0FFFFFFFFFFFFFFFF0F0F0F0FF0F0F0F0FFFFFFFFED
:200BE0000F0F0F0FFFFFFFFFF0F0F0F0FFFFFFFFFFFFFFFFFFFFFFFFF0F0F0F0FFFFFFFF4D
:200C000000000000000000000F0F0F0F0F0F0F0FF0F0F0F0000000000F0F0F0F0F0F0F0F24
:200C200000000000F0F0F0F00F0F0F0F0F0F0F0FF0F0F0F0F0F0F0F00F0F0F0F0F0F0F0F84
:200C40000000000000000000FFFFFFFF0F0F0F0FF0F0F0F000000000FFFFFFFF0F0F0F0F64
:200C600000000000F0F0F0F0FFFFFFFF0F0F0F0FF0F0F0F0F0F0F0F0FFFFFFFF0F0F0F0FC4
:200C800000000000000000000F0F0F0FFFFFFFFFF0F0F0F0000000000F0F0F0FFFFFFFFF24
:200CA00000000000F0F0F0F00F0F0F0FFFFFFFFFF0F0F0F0F0F0F0F00F0F0F0FFFFFFFFF84
:200CC0000000000000000000FFFFFFFFFFFFFFFFF0F0F0F000000000FFFFFFFFFFFFFFFF64
:200CE00000000000F0F0F0F0FFFFFFFFFFFFFFFFF0F0F0F0F0F0F0F0FFFFFFFFFFFFFFFFC4
:200D00000F0F0F0F000000000F0F0F0F0F0F0F0FFFFFFFFF000000000F0F0F0F0F0F0F0FAB
:200D20000F0F0F0FF0F0F0F00F0F0F0F0F0F0F0FFFFFFFFFF0F0F0F00F0F0F0F0F0F0F0F0B
:200D40000F0F0F0F00000000FFFFFFFF0F0F0F0FFFFFFFFF00000000FFFFFFFF0F0F0F0FEB
:200D60000F0F0F0FF0F0F0F0FFFFFFFF0F0F0F0FFFFFFFFFF0F0F0F0FFFFFFFF0F0F0F0F4B
:200D80000F0F0F0F000000000F0F0F0FFFFFFFFFFFFFFFFF000000000F0F0F0FFFFFFFFFAB
:200DA0000F0F0F0FF0F0F0F00F0F0F0FFFFFFFFFFFFFFFFFF0F0F0F00F0F0F0FFFFFFFFF0B
:200DC0000F0F0F0F00000000FFFFFFFFFFFFFFFFFFFFFFFF00000000FFFFFFFFFFFFFFFFEB
:200DE0000F0F0F0FF0F0F0F0FFFFFFFFFFFFFFFFFFFFFFFFF0F0F0F0FFFFFFFFFFFFFFFF4B
:200E0000000000000F0F0F0F0F0F0F0F0F0F0F0FF0F0F0F00F0F0F0F0F0F0F0F0F0F0F0FAA
:200E200000000000FFFFFFFF0F0F0F0F0F0F0F0FF0F0F0F0FFFFFFFF0F0F0F0F0F0F0F0F0A
:200E4000000000000F0F0F0FFFFFFFFF0F0F0F0FF0F0F0F00F0F0F0FFFFFFFFF0F0F0F0FEA
:200E600000000000FFFFFFFFFFFFFFFF0F0F0F0FF0F0F0F0FFFFFFFFFFFFFFFF0F0F0F0F4A
:200E8000000000000F0F0F0F0F0F0F0FFFFFFFFFF0F0F0F00F0F0F0F0F0F0F0FFFFFFFFFAA
:200EA00000000000FFFFFFFF0F0F0F0FFFFFFFFFF0F0F0F0FFFFFFFF0F0F0F0FFFFFFFFF0A
:200EC000000000000F0F0F0FFFFFFFFFFFFFFFFFF0F0F0F00F0F0F0FFFFFFFFFFFFFFFFFEA
:200EE00000000000FFFFFFFFFFFFFFFFFFFFFFFFF0F0F0F0FFFFFFFFFFFFFFFFFFFFFFFF4A
:200F00000F0F0F0F0F0F0F0F0F0F0F0F0F0F0F0FFFFFFFFF0F0F0F0F0F0F0F0F0F0F0F0F31
:200F20000F0F0F0FFFFFFFFF0F0F0F0F0F0F0F0FFFFFFFFFFFFFFFFF0F0F0F0F0F0F0F0F91
:200F40000F0F0F0F0F0F0F0FFFFFFFFF0F0F0F0FFFFFFFFF0F0F0F0FFFFFFFFF0F0F0F0F71
:200F60000F0F0F0FFFFFFFFFFFFFFFFF0F0F0F0FFFFFFFFFFFFFFFFFFFFFFFFF0F0F0F0FD1
:200F80000F0F0F0F0F0F0F0F0F0F0F0FFFFFFFFFFFFFFFFF0F0F0F0F0F0F0F0FFFFFFFFF31
:200FA0000F0F0F0FFFFFFFFF0F0F0F0FFFFFFFFFFFFFFFFFFFFFFFFF0F0F0F0FFFFFFFFF91
:200FC0000F0F0F0F0F0F0F0FFFFFFFFFFFFFFFFFFFFFFFFF0F0F0F0FFFFFFFFFFFFFFFFF71
:200FE0000F0F0F0FFFFFFFFFFFFFFFFFFFFFFFFFFFFFFFFFFFFFFFFFFFFFFFFFFFFFFFFFD1
:00000001FF
